{"abi":[{"type":"function","name":"accounts","inputs":[{"name":"","type":"address","internalType":"address"}],"outputs":[{"name":"evaluator","type":"address","internalType":"address"},{"name":"entryPoint","type":"address","internalType":"address"},{"name":"frozen","type":"bool","internalType":"bool"},{"name":"initialized","type":"bool","internalType":"bool"}],"stateMutability":"view"},{"type":"function","name":"checkSpendingLimit","inputs":[{"name":"account","type":"address","internalType":"address"},{"name":"token","type":"address","internalType":"address"},{"name":"amount","type":"uint256","internalType":"uint256"}],"outputs":[{"name":"withinLimits","type":"bool","internalType":"bool"}],"stateMutability":"view"},{"type":"function","name":"freeze","inputs":[],"outputs":[],"stateMutability":"nonpayable"},{"type":"function","name":"getEvaluator","inputs":[{"name":"account","type":"address","internalType":"address"}],"outputs":[{"name":"","type":"address","internalType":"address"}],"stateMutability":"view"},{"type":"function","name":"initialize","inputs":[{"name":"evaluator","type":"address","internalType":"address"},{"name":"ethMaxPerTx","type":"uint256","internalType":"uint256"},{"name":"ethMaxPerDay","type":"uint256","internalType":"uint256"}],"outputs":[],"stateMutability":"nonpayable"},{"type":"function","name":"isFrozen","inputs":[{"name":"account","type":"address","internalType":"address"}],"outputs":[{"name":"","type":"bool","internalType":"bool"}],"stateMutability":"view"},{"type":"function","name":"isInitialized","inputs":[{"name":"account","type":"address","internalType":"address"}],"outputs":[{"name":"","type":"bool","internalType":"bool"}],"stateMutability":"view"},{"type":"function","name":"setEntryPoint","inputs":[{"name":"entryPoint","type":"address","internalType":"address"}],"outputs":[],"stateMutability":"nonpayable"},{"type":"function","name":"setEvaluator","inputs":[{"name":"newEvaluator","type":"address","internalType":"address"}],"outputs":[],"stateMutability":"nonpayable"},{"type":"function","name":"setSpendingLimit","inputs":[{"name":"token","type":"address","internalType":"address"},{"name":"maxPerTx","type":"uint256","internalType":"uint256"},{"name":"maxPerDay","type":"uint256","internalType":"uint256"}],"outputs":[],"stateMutability":"nonpayable"},{"type":"function","name":"spendingLimits","inputs":[{"name":"","type":"address","internalType":"address"},{"name":"","type":"address","internalType":"address"}],"outputs":[{"name":"maxPerTx","type":"uint256","internalType":"uint256"},{"name":"maxPerDay","type":"uint256","internalType":"uint256"},{"name":"spentToday","type":"uint256","internalType":"uint256"},{"name":"lastResetDay","type":"uint256","internalType":"uint256"}],"stateMutability":"view"},{"type":"function","name":"unfreeze","inputs":[],"outputs":[],"stateMutability":"nonpayable"},{"type":"function","name":"validateUserOp","inputs":[{"name":"userOp","type":"tuple","internalType":"struct PackedUserOperation","components":[{"name":"sender","type":"address","internalType":"address"},{"name":"nonce","type":"uint256","internalType":"uint256"},{"name":"initCode","type":"bytes","internalType":"bytes"},{"name":"callData","type":"bytes","internalType":"bytes"},{"name":"accountGasLimits","type":"bytes32","internalType":"bytes32"},{"name":"preVerificationGas","type":"uint256","internalType":"uint256"},{"name":"gasFees","type":"bytes32","internalType":"bytes32"},{"name":"paymasterAndData","type":"bytes","internalType":"bytes"},{"name":"signature","type":"bytes","internalType":"bytes"}]},{"name":"userOpHash","type":"bytes32","internalType":"bytes32"},{"name":"","type":"uint256","internalType":"uint256"}],"outputs":[{"name":"validationData","type":"uint256","internalType":"uint256"}],"stateMutability":"nonpayable"},{"type":"event","name":"AccountFrozen","inputs":[{"name":"account","type":"address","indexed":true,"internalType":"address"}],"anonymous":false},{"type":"event","name":"AccountUnfrozen","inputs":[{"name":"account","type":"address","indexed":true,"internalType":"address"}],"anonymous":false},{"type":"event","name":"EntryPointUpdated","inputs":[{"name":"account","type":"address","indexed":true,"internalType":"address"},{"name":"entryPoint","type":"address","indexed":true,"internalType":"address"}],"anonymous":false},{"type":"event","name":"EvaluatorUpdated","inputs":[{"name":"account","type":"address","indexed":true,"internalType":"address"},{"name":"evaluator","type":"address","indexed":true,"internalType":"address"}],"anonymous":false},{"type":"event","name":"SpendingLimitSet","inputs":[{"name":"account","type":"address","indexed":true,"internalType":"address"},{"name":"token","type":"address","indexed":true,"internalType":"address"},{"name":"maxPerTx","type":"uint256","indexed":false,"internalType":"uint256"},{"name":"maxPerDay","type":"uint256","indexed":false,"internalType":"uint256"}],"anonymous":false},{"type":"event","name":"TransactionApproved","inputs":[{"name":"account","type":"address","indexed":true,"internalType":"address"},{"name":"userOpHash","type":"bytes32","indexed":true,"internalType":"bytes32"}],"anonymous":false},{"type":"event","name":"TransactionBlocked","inputs":[{"name":"account","type":"address","indexed":true,"internalType":"address"},{"name":"userOpHash","type":"bytes32","indexed":true,"internalType":"bytes32"},{"name":"reason","type":"string","indexed":false,"internalType":"string"}],"anonymous":false},{"type":"error","name":"AccountIsFrozen","inputs":[]},{"type":"error","name":"InvalidApprovalSignature","inputs":[]},{"type":"error","name":"InvalidEvaluator","inputs":[]},{"type":"error","name":"NotAccountOwner","inputs":[]},{"type":"error","name":"SpendingLimitExceeded","inputs":[{"name":"limitType","type":"string","internalType":"string"}]},{"type":"error","name":"ZeroAddress","inputs":[]}],"bytecode":{"object":"0x608060405234801561000f575f80fd5b506111488061001d5f395ff3fe608060405234801561000f575f80fd5b50600436106100cb575f3560e01c806362a5af3b11610088578063c51e8e4411610063578063c51e8e441461023c578063d60b347f1461024f578063e583983614610284578063f02926c7146102b9575f80fd5b806362a5af3b146102195780636a28f000146102215780637a1ac61e14610229575f80fd5b806302dbbbac146100cf57806319822f7c146100e4578063400974161461010a57806340cc860b1461012d578063584465f21461018a5780635e5c06e21461019d575b5f80fd5b6100e26100dd366004610f07565b6102fc565b005b6100f76100f2366004610f20565b6103b6565b6040519081526020015b60405180910390f35b61011d610118366004610f6f565b6106a1565b6040519015158152602001610101565b61016a61013b366004610fa8565b600160208181525f93845260408085209091529183529120805491810154600282015460039092015490919084565b604080519485526020850193909352918301526060820152608001610101565b6100e2610198366004610f07565b61074c565b6101e66101ab366004610f07565b5f60208190529081526040902080546001909101546001600160a01b039182169181169060ff600160a01b8204811691600160a81b90041684565b604080516001600160a01b0395861681529490931660208501529015159183019190915215156060820152608001610101565b6100e2610809565b6100e2610890565b6100e2610237366004610fd9565b610911565b6100e261024a366004610fd9565b610ae4565b61011d61025d366004610f07565b6001600160a01b03165f90815260208190526040902060010154600160a81b900460ff1690565b61011d610292366004610f07565b6001600160a01b03165f90815260208190526040902060010154600160a01b900460ff1690565b6102e46102c7366004610f07565b6001600160a01b039081165f908152602081905260409020541690565b6040516001600160a01b039091168152602001610101565b335f90815260208190526040812060010154600160a81b900460ff16151590036103395760405163fcfdb9b560e01b815260040160405180910390fd5b6001600160a01b0381166103605760405163d92e233d60e01b815260040160405180910390fd5b335f8181526020819052604080822080546001600160a01b0319166001600160a01b03861690811790915590519092917f251ea37dea2bc12d4a4f4db92f8d7ea37e18a2e9bc65531e97a4990a091be41c91a350565b5f8080806103c76020880188610f07565b6001600160a01b031681526020808201929092526040015f2091506103ee90860186610f07565b6001600160a01b0316336001600160a01b03161415801561041c575060018101546001600160a01b03163314155b15610496578361042f6020870187610f07565b6001600160a01b03165f805160206110f3833981519152604051610484906020808252601e908201527f556e617574686f72697a65642076616c69646174696f6e2063616c6c65720000604082015260600190565b60405180910390a3600191505061069a565b6001810154600160a01b900460ff161561050157836104b86020870187610f07565b6001600160a01b03165f805160206110f38339815191526040516104849060208082526011908201527020b1b1b7bab73a1034b990333937bd32b760791b604082015260600190565b610524610512610100870187610ff4565b835487906001600160a01b0316610bd0565b61058b57836105366020870187610f07565b6001600160a01b03165f805160206110f38339815191526040516104849060208082526017908201527f496e76616c69642057617264657820617070726f76616c000000000000000000604082015260600190565b5f6105a161059c6060880188610ff4565b610cd6565b90508015610651576105c06105b96020880188610f07565b5f836106a1565b61063a57846105d26020880188610f07565b6001600160a01b03165f805160206110f38339815191526040516106279060208082526017908201527f5370656e64696e67206c696d6974206578636565646564000000000000000000604082015260600190565b60405180910390a360019250505061069a565b61065161064a6020880188610f07565b5f83610d75565b8461065f6020880188610f07565b6001600160a01b03167f7115b98931e7aca6d0aa11d10fe28877316a661a44c4bfc93c76b19dbbf5b10760405160405180910390a35f925050505b9392505050565b6001600160a01b038084165f908152600160209081526040808320938616835292905290812080541580156106d857506001810154155b156106e757600191505061069a565b80548311156106f9575f91505061069a565b5f6107076201518042611052565b600283015460038401549192509082111561071f57505f5b600183015461072e8683611071565b111561073f575f935050505061069a565b5060019695505050505050565b335f90815260208190526040812060010154600160a81b900460ff16151590036107895760405163fcfdb9b560e01b815260040160405180910390fd5b6001600160a01b0381166107b05760405163d92e233d60e01b815260040160405180910390fd5b335f8181526020819052604080822060010180546001600160a01b0319166001600160a01b03861690811790915590519092917f9efc8bb238b1965522b3e784290f41e0229e21a34f499fd2f71b64463283a41691a350565b335f90815260208190526040812060010154600160a81b900460ff16151590036108465760405163fcfdb9b560e01b815260040160405180910390fd5b335f81815260208190526040808220600101805460ff60a01b1916600160a01b179055517f4f2a367e694e71282f29ab5eaa04c4c0be45ac5bf2ca74fb67068b98bdc2887d9190a2565b335f90815260208190526040812060010154600160a81b900460ff16151590036108cd5760405163fcfdb9b560e01b815260040160405180910390fd5b335f81815260208190526040808220600101805460ff60a01b19169055517ff915cd9fe234de6e8d3afe7bf2388d35b2b6d48e8c629a24602019bde79c213a9190a2565b6001600160a01b0383166109385760405163d92e233d60e01b815260040160405180910390fd5b335f90815260208190526040902060010154600160a81b900460ff16156109725760405163fcfdb9b560e01b815260040160405180910390fd5b60408051608080820183526001600160a01b0380871683525f6020808501828152858701838152600160608089018281523387528686528a872099518a549089166001600160a01b0319909116178a559351989091018054925193511515600160a81b0260ff60a81b19941515600160a01b026001600160a81b031990941699909716989098179190911791909116939093179094558451928301855286835292820185905292810191909152908101610a2f6201518042611052565b9052335f818152600160208181526040808420848052825280842086518155918601519282019290925584820151600282015560609094015160039094019390935591516001600160a01b038616927f251ea37dea2bc12d4a4f4db92f8d7ea37e18a2e9bc65531e97a4990a091be41c91a360408051838152602081018390525f9133917f33b7e2f21b9f1f683df3ced12dbc0954e9cb76bd5a9950f4bfb040595e7b4b4791015b60405180910390a3505050565b335f90815260208190526040812060010154600160a81b900460ff1615159003610b215760405163fcfdb9b560e01b815260040160405180910390fd5b60405180608001604052808381526020018281526020015f81526020016201518042610b4d9190611052565b9052335f8181526001602081815260408084206001600160a01b038a1680865290835293819020865181558683015193810193909355858101516002840155606090950151600390920191909155835186815290810185905290927f33b7e2f21b9f1f683df3ced12dbc0954e9cb76bd5a9950f4bfb040595e7b4b479101610ad7565b5f60418414610be057505f610cce565b604080517f19457468657265756d205369676e6564204d6573736167653a0a333200000000602080830191909152603c82018690528735929088013591908801355f90811a91605c0160408051601f1981840301815282825280516020918201205f80855291840180845281905260ff86169284019290925260608301879052608083018690529092509060019060a0016020604051602081039080840390855afa158015610c91573d5f803e3d5ffd5b505050602060405103519050866001600160a01b0316816001600160a01b0316148015610cc657506001600160a01b03811615155b955050505050505b949350505050565b5f6044821015610ce757505f610d6f565b5f610cf56004828587611084565b610cfe916110ab565b90506001600160e01b03198116635b0e93fb60e11b1480610d2f57506001600160e01b0319811663353b090160e11b145b15610d405750506024820135610d6f565b63e300863360e01b6001600160e01b0319821601610d6a57610d628484610dea565b915050610d6f565b5f9150505b92915050565b6001600160a01b038084165f908152600160209081526040808320938616835292905290812090610da96201518042611052565b90508160030154811115610dca576002820183905560038201819055610de3565b82826002015f828254610ddd9190611071565b90915550505b5050505050565b5f6044821015610dfb57505f610d6f565b600483810135905f90610e0f908390611071565b9050610e1c816020611071565b841015610e2d575f92505050610d6f565b848101356008811115610e3e575060085b5f80610e4b846020611071565b90505f5b83811015610edf57610e62816001611071565b610e6d9060206110db565b610e779083611071565b8810610edf575f6020820283018a013590505f81876020610e989190611071565b610ea29190611071565b9050610eaf816040611071565b8a1015610ebd575050610edf565b8a810160200135610ece8187611071565b95505060019092019150610e4f9050565b5090979650505050505050565b80356001600160a01b0381168114610f02575f80fd5b919050565b5f60208284031215610f17575f80fd5b61069a82610eec565b5f805f60608486031215610f32575f80fd5b833567ffffffffffffffff811115610f48575f80fd5b84016101208187031215610f5a575f80fd5b95602085013595506040909401359392505050565b5f805f60608486031215610f81575f80fd5b610f8a84610eec565b9250610f9860208501610eec565b9150604084013590509250925092565b5f8060408385031215610fb9575f80fd5b610fc283610eec565b9150610fd060208401610eec565b90509250929050565b5f805f60608486031215610feb575f80fd5b610f5a84610eec565b5f808335601e19843603018112611009575f80fd5b83018035915067ffffffffffffffff821115611023575f80fd5b602001915036819003821315611037575f80fd5b9250929050565b634e487b7160e01b5f52601160045260245ffd5b5f8261106c57634e487b7160e01b5f52601260045260245ffd5b500490565b80820180821115610d6f57610d6f61103e565b5f8085851115611092575f80fd5b8386111561109e575f80fd5b5050820193919092039150565b6001600160e01b031981358181169160048510156110d35780818660040360031b1b83161692505b505092915050565b8082028115828204841417610d6f57610d6f61103e56fe1a11608e6fbbeff096947d8279b2af70521647bd84cccbe40c5cae40048a6035a2646970667358221220c8c769e51858906b3d3703a0de55eeecf536584919d91a2e076565a4e41863b764736f6c63430008180033","linkReferences":{}},"methodIdentifiers":{"accounts(address)":"5e5c06e2","checkSpendingLimit(address,address,uint256)":"40097416","freeze()":"62a5af3b","getEvaluator(address)":"f02926c7","initialize(address,uint256,uint256)":"7a1ac61e","isFrozen(address)":"e5839836","isInitialized(address)":"d60b347f","setEntryPoint(address)":"584465f2","setEvaluator(address)":"02dbbbac","setSpendingLimit(address,uint256,uint256)":"c51e8e44","spendingLimits(address,address)":"40cc860b","unfreeze()":"6a28f000","validateUserOp((address,uint256,bytes,bytes,bytes32,uint256,bytes32,bytes,bytes),bytes32,uint256)":"19822f7c"},"id":19}