{"abi":[{"type":"function","name":"accounts","inputs":[{"name":"","type":"address","internalType":"address"}],"outputs":[{"name":"evaluator","type":"address","internalType":"address"},{"name":"frozen","type":"bool","internalType":"bool"},{"name":"initialized","type":"bool","internalType":"bool"}],"stateMutability":"view"},{"type":"function","name":"checkSpendingLimit","inputs":[{"name":"account","type":"address","internalType":"address"},{"name":"token","type":"address","internalType":"address"},{"name":"amount","type":"uint256","internalType":"uint256"}],"outputs":[{"name":"withinLimits","type":"bool","internalType":"bool"}],"stateMutability":"view"},{"type":"function","name":"freeze","inputs":[],"outputs":[],"stateMutability":"nonpayable"},{"type":"function","name":"getEvaluator","inputs":[{"name":"account","type":"address","internalType":"address"}],"outputs":[{"name":"","type":"address","internalType":"address"}],"stateMutability":"view"},{"type":"function","name":"initialize","inputs":[{"name":"evaluator","type":"address","internalType":"address"},{"name":"ethMaxPerTx","type":"uint256","internalType":"uint256"},{"name":"ethMaxPerDay","type":"uint256","internalType":"uint256"}],"outputs":[],"stateMutability":"nonpayable"},{"type":"function","name":"isFrozen","inputs":[{"name":"account","type":"address","internalType":"address"}],"outputs":[{"name":"","type":"bool","internalType":"bool"}],"stateMutability":"view"},{"type":"function","name":"isInitialized","inputs":[{"name":"account","type":"address","internalType":"address"}],"outputs":[{"name":"","type":"bool","internalType":"bool"}],"stateMutability":"view"},{"type":"function","name":"setEvaluator","inputs":[{"name":"newEvaluator","type":"address","internalType":"address"}],"outputs":[],"stateMutability":"nonpayable"},{"type":"function","name":"setSpendingLimit","inputs":[{"name":"token","type":"address","internalType":"address"},{"name":"maxPerTx","type":"uint256","internalType":"uint256"},{"name":"maxPerDay","type":"uint256","internalType":"uint256"}],"outputs":[],"stateMutability":"nonpayable"},{"type":"function","name":"spendingLimits","inputs":[{"name":"","type":"address","internalType":"address"},{"name":"","type":"address","internalType":"address"}],"outputs":[{"name":"maxPerTx","type":"uint256","internalType":"uint256"},{"name":"maxPerDay","type":"uint256","internalType":"uint256"},{"name":"spentToday","type":"uint256","internalType":"uint256"},{"name":"lastResetDay","type":"uint256","internalType":"uint256"}],"stateMutability":"view"},{"type":"function","name":"unfreeze","inputs":[],"outputs":[],"stateMutability":"nonpayable"},{"type":"function","name":"validateUserOp","inputs":[{"name":"userOp","type":"tuple","internalType":"struct PackedUserOperation","components":[{"name":"sender","type":"address","internalType":"address"},{"name":"nonce","type":"uint256","internalType":"uint256"},{"name":"initCode","type":"bytes","internalType":"bytes"},{"name":"callData","type":"bytes","internalType":"bytes"},{"name":"accountGasLimits","type":"bytes32","internalType":"bytes32"},{"name":"preVerificationGas","type":"uint256","internalType":"uint256"},{"name":"gasFees","type":"bytes32","internalType":"bytes32"},{"name":"paymasterAndData","type":"bytes","internalType":"bytes"},{"name":"signature","type":"bytes","internalType":"bytes"}]},{"name":"userOpHash","type":"bytes32","internalType":"bytes32"},{"name":"","type":"uint256","internalType":"uint256"}],"outputs":[{"name":"validationData","type":"uint256","internalType":"uint256"}],"stateMutability":"nonpayable"},{"type":"event","name":"AccountFrozen","inputs":[{"name":"account","type":"address","indexed":true,"internalType":"address"}],"anonymous":false},{"type":"event","name":"AccountUnfrozen","inputs":[{"name":"account","type":"address","indexed":true,"internalType":"address"}],"anonymous":false},{"type":"event","name":"EvaluatorUpdated","inputs":[{"name":"account","type":"address","indexed":true,"internalType":"address"},{"name":"evaluator","type":"address","indexed":true,"internalType":"address"}],"anonymous":false},{"type":"event","name":"SpendingLimitSet","inputs":[{"name":"account","type":"address","indexed":true,"internalType":"address"},{"name":"token","type":"address","indexed":true,"internalType":"address"},{"name":"maxPerTx","type":"uint256","indexed":false,"internalType":"uint256"},{"name":"maxPerDay","type":"uint256","indexed":false,"internalType":"uint256"}],"anonymous":false},{"type":"event","name":"TransactionApproved","inputs":[{"name":"account","type":"address","indexed":true,"internalType":"address"},{"name":"userOpHash","type":"bytes32","indexed":true,"internalType":"bytes32"}],"anonymous":false},{"type":"event","name":"TransactionBlocked","inputs":[{"name":"account","type":"address","indexed":true,"internalType":"address"},{"name":"userOpHash","type":"bytes32","indexed":true,"internalType":"bytes32"},{"name":"reason","type":"string","indexed":false,"internalType":"string"}],"anonymous":false},{"type":"error","name":"AccountIsFrozen","inputs":[]},{"type":"error","name":"InvalidApprovalSignature","inputs":[]},{"type":"error","name":"InvalidEvaluator","inputs":[]},{"type":"error","name":"NotAccountOwner","inputs":[]},{"type":"error","name":"SpendingLimitExceeded","inputs":[{"name":"limitType","type":"string","internalType":"string"}]},{"type":"error","name":"ZeroAddress","inputs":[]}],"bytecode":{"object":"0x608060405234801561000f575f80fd5b50610e118061001d5f395ff3fe608060405234801561000f575f80fd5b50600436106100b1575f3560e01c80636a28f0001161006e5780636a28f000146101dd5780637a1ac61e146101e5578063c51e8e44146101f8578063d60b347f1461020b578063e58398361461023d578063f02926c71461026f575f80fd5b806302dbbbac146100b557806319822f7c146100ca57806340097416146100f057806340cc860b146101135780635e5c06e21461017057806362a5af3b146101d5575b5f80fd5b6100c86100c3366004610c0f565b6102b2565b005b6100dd6100d8366004610c28565b610369565b6040519081526020015b60405180910390f35b6101036100fe366004610c77565b6105e8565b60405190151581526020016100e7565b610150610121366004610cb0565b600160208181525f93845260408085209091529183529120805491810154600282015460039092015490919084565b6040805194855260208501939093529183015260608201526080016100e7565b6101ae61017e366004610c0f565b5f602081905290815260409020546001600160a01b0381169060ff600160a01b8204811691600160a81b90041683565b604080516001600160a01b03909416845291151560208401521515908201526060016100e7565b6100c8610693565b6100c8610714565b6100c86101f3366004610ce1565b61078f565b6100c8610206366004610ce1565b610937565b610103610219366004610c0f565b6001600160a01b03165f90815260208190526040902054600160a81b900460ff1690565b61010361024b366004610c0f565b6001600160a01b03165f90815260208190526040902054600160a01b900460ff1690565b61029a61027d366004610c0f565b6001600160a01b039081165f908152602081905260409020541690565b6040516001600160a01b0390911681526020016100e7565b335f90815260208190526040812054600160a81b900460ff16151590036102ec5760405163fcfdb9b560e01b815260040160405180910390fd5b6001600160a01b0381166103135760405163d92e233d60e01b815260040160405180910390fd5b335f8181526020819052604080822080546001600160a01b0319166001600160a01b03861690811790915590519092917f251ea37dea2bc12d4a4f4db92f8d7ea37e18a2e9bc65531e97a4990a091be41c91a350565b5f80808061037a6020880188610c0f565b6001600160a01b0316815260208101919091526040015f208054909150600160a01b900460ff161561042257836103b46020870187610c0f565b6001600160a01b03167f1a11608e6fbbeff096947d8279b2af70521647bd84cccbe40c5cae40048a60356040516104109060208082526011908201527020b1b1b7bab73a1034b990333937bd32b760791b604082015260600190565b60405180910390a360019150506105e1565b610445610433610100870187610cfc565b835487906001600160a01b0316610a20565b6104bf57836104576020870187610c0f565b6001600160a01b03167f1a11608e6fbbeff096947d8279b2af70521647bd84cccbe40c5cae40048a60356040516104109060208082526017908201527f496e76616c69642057617264657820617070726f76616c000000000000000000604082015260600190565b5f6104d56104d06060880188610cfc565b610b26565b90508015610598576104f46104ed6020880188610c0f565b5f836105e8565b61058157846105066020880188610c0f565b6001600160a01b03167f1a11608e6fbbeff096947d8279b2af70521647bd84cccbe40c5cae40048a603560405161056e9060208082526017908201527f5370656e64696e67206c696d6974206578636565646564000000000000000000604082015260600190565b60405180910390a36001925050506105e1565b6105986105916020880188610c0f565b5f83610b7f565b846105a66020880188610c0f565b6001600160a01b03167f7115b98931e7aca6d0aa11d10fe28877316a661a44c4bfc93c76b19dbbf5b10760405160405180910390a35f925050505b9392505050565b6001600160a01b038084165f9081526001602090815260408083209386168352929052908120805415801561061f57506001810154155b1561062e5760019150506105e1565b8054831115610640575f9150506105e1565b5f61064e6201518042610d46565b600283015460038401549192509082111561066657505f5b60018301546106758683610d65565b1115610686575f93505050506105e1565b5060019695505050505050565b335f90815260208190526040812054600160a81b900460ff16151590036106cd5760405163fcfdb9b560e01b815260040160405180910390fd5b335f81815260208190526040808220805460ff60a01b1916600160a01b179055517f4f2a367e694e71282f29ab5eaa04c4c0be45ac5bf2ca74fb67068b98bdc2887d9190a2565b335f90815260208190526040812054600160a81b900460ff161515900361074e5760405163fcfdb9b560e01b815260040160405180910390fd5b335f81815260208190526040808220805460ff60a01b19169055517ff915cd9fe234de6e8d3afe7bf2388d35b2b6d48e8c629a24602019bde79c213a9190a2565b6001600160a01b0383166107b65760405163d92e233d60e01b815260040160405180910390fd5b335f90815260208190526040902054600160a81b900460ff16156107ed5760405163fcfdb9b560e01b815260040160405180910390fd5b60408051606080820183526001600160a01b0380871683525f6020808501828152600186880190815233845283835287842096518754925191511515600160a81b0260ff60a81b19921515600160a01b026001600160a81b0319909416919096161791909117169290921790935583516080810185528681529081018590529283019190915281016108826201518042610d46565b9052335f818152600160208181526040808420848052825280842086518155918601519282019290925584820151600282015560609094015160039094019390935591516001600160a01b038616927f251ea37dea2bc12d4a4f4db92f8d7ea37e18a2e9bc65531e97a4990a091be41c91a360408051838152602081018390525f9133917f33b7e2f21b9f1f683df3ced12dbc0954e9cb76bd5a9950f4bfb040595e7b4b4791015b60405180910390a3505050565b335f90815260208190526040812054600160a81b900460ff16151590036109715760405163fcfdb9b560e01b815260040160405180910390fd5b60405180608001604052808381526020018281526020015f8152602001620151804261099d9190610d46565b9052335f8181526001602081815260408084206001600160a01b038a1680865290835293819020865181558683015193810193909355858101516002840155606090950151600390920191909155835186815290810185905290927f33b7e2f21b9f1f683df3ced12dbc0954e9cb76bd5a9950f4bfb040595e7b4b47910161092a565b5f60418414610a3057505f610b1e565b604080517f19457468657265756d205369676e6564204d6573736167653a0a333200000000602080830191909152603c82018690528735929088013591908801355f90811a91605c0160408051601f1981840301815282825280516020918201205f80855291840180845281905260ff86169284019290925260608301879052608083018690529092509060019060a0016020604051602081039080840390855afa158015610ae1573d5f803e3d5ffd5b505050602060405103519050866001600160a01b0316816001600160a01b0316148015610b1657506001600160a01b03811615155b955050505050505b949350505050565b5f6044821015610b3757505f610b79565b5f610b456004828587610d84565b610b4e91610dab565b90506001600160e01b03198116635b0e93fb60e11b14610b71575f915050610b79565b505060248201355b92915050565b6001600160a01b038084165f908152600160209081526040808320938616835292905290812090610bb36201518042610d46565b90508160030154811115610bd4576002820183905560038201819055610bed565b82826002015f828254610be79190610d65565b90915550505b5050505050565b80356001600160a01b0381168114610c0a575f80fd5b919050565b5f60208284031215610c1f575f80fd5b6105e182610bf4565b5f805f60608486031215610c3a575f80fd5b833567ffffffffffffffff811115610c50575f80fd5b84016101208187031215610c62575f80fd5b95602085013595506040909401359392505050565b5f805f60608486031215610c89575f80fd5b610c9284610bf4565b9250610ca060208501610bf4565b9150604084013590509250925092565b5f8060408385031215610cc1575f80fd5b610cca83610bf4565b9150610cd860208401610bf4565b90509250929050565b5f805f60608486031215610cf3575f80fd5b610c6284610bf4565b5f808335601e19843603018112610d11575f80fd5b83018035915067ffffffffffffffff821115610d2b575f80fd5b602001915036819003821315610d3f575f80fd5b9250929050565b5f82610d6057634e487b7160e01b5f52601260045260245ffd5b500490565b80820180821115610b7957634e487b7160e01b5f52601160045260245ffd5b5f8085851115610d92575f80fd5b83861115610d9e575f80fd5b5050820193919092039150565b6001600160e01b03198135818116916004851015610dd35780818660040360031b1b83161692505b50509291505056fea26469706673582212206915c5115537fef77bbdca9fb54fe378517f98106fd37e7de865d5ef3cbb44df64736f6c63430008180033","linkReferences":{}},"methodIdentifiers":{"accounts(address)":"5e5c06e2","checkSpendingLimit(address,address,uint256)":"40097416","freeze()":"62a5af3b","getEvaluator(address)":"f02926c7","initialize(address,uint256,uint256)":"7a1ac61e","isFrozen(address)":"e5839836","isInitialized(address)":"d60b347f","setEvaluator(address)":"02dbbbac","setSpendingLimit(address,uint256,uint256)":"c51e8e44","spendingLimits(address,address)":"40cc860b","unfreeze()":"6a28f000","validateUserOp((address,uint256,bytes,bytes,bytes32,uint256,bytes32,bytes,bytes),bytes32,uint256)":"19822f7c"},"id":19}